{
  "_format": "hh-sol-artifact-1",
  "contractName": "OnChainNFT",
  "sourceName": "contracts/OnchainNFT.sol",
  "abi": [
    {
      "inputs": [],
      "stateMutability": "nonpayable",
      "type": "constructor"
    },
    {
      "inputs": [
        {
          "internalType": "address",
          "name": "sender",
          "type": "address"
        },
        {
          "internalType": "uint256",
          "name": "tokenId",
          "type": "uint256"
        },
        {
          "internalType": "address",
          "name": "owner",
          "type": "address"
        }
      ],
      "name": "ERC721IncorrectOwner",
      "type": "error"
    },
    {
      "inputs": [
        {
          "internalType": "address",
          "name": "operator",
          "type": "address"
        },
        {
          "internalType": "uint256",
          "name": "tokenId",
          "type": "uint256"
        }
      ],
      "name": "ERC721InsufficientApproval",
      "type": "error"
    },
    {
      "inputs": [
        {
          "internalType": "address",
          "name": "approver",
          "type": "address"
        }
      ],
      "name": "ERC721InvalidApprover",
      "type": "error"
    },
    {
      "inputs": [
        {
          "internalType": "address",
          "name": "operator",
          "type": "address"
        }
      ],
      "name": "ERC721InvalidOperator",
      "type": "error"
    },
    {
      "inputs": [
        {
          "internalType": "address",
          "name": "owner",
          "type": "address"
        }
      ],
      "name": "ERC721InvalidOwner",
      "type": "error"
    },
    {
      "inputs": [
        {
          "internalType": "address",
          "name": "receiver",
          "type": "address"
        }
      ],
      "name": "ERC721InvalidReceiver",
      "type": "error"
    },
    {
      "inputs": [
        {
          "internalType": "address",
          "name": "sender",
          "type": "address"
        }
      ],
      "name": "ERC721InvalidSender",
      "type": "error"
    },
    {
      "inputs": [
        {
          "internalType": "uint256",
          "name": "tokenId",
          "type": "uint256"
        }
      ],
      "name": "ERC721NonexistentToken",
      "type": "error"
    },
    {
      "inputs": [
        {
          "internalType": "address",
          "name": "owner",
          "type": "address"
        }
      ],
      "name": "OwnableInvalidOwner",
      "type": "error"
    },
    {
      "inputs": [
        {
          "internalType": "address",
          "name": "account",
          "type": "address"
        }
      ],
      "name": "OwnableUnauthorizedAccount",
      "type": "error"
    },
    {
      "anonymous": false,
      "inputs": [
        {
          "indexed": true,
          "internalType": "address",
          "name": "owner",
          "type": "address"
        },
        {
          "indexed": true,
          "internalType": "address",
          "name": "approved",
          "type": "address"
        },
        {
          "indexed": true,
          "internalType": "uint256",
          "name": "tokenId",
          "type": "uint256"
        }
      ],
      "name": "Approval",
      "type": "event"
    },
    {
      "anonymous": false,
      "inputs": [
        {
          "indexed": true,
          "internalType": "address",
          "name": "owner",
          "type": "address"
        },
        {
          "indexed": true,
          "internalType": "address",
          "name": "operator",
          "type": "address"
        },
        {
          "indexed": false,
          "internalType": "bool",
          "name": "approved",
          "type": "bool"
        }
      ],
      "name": "ApprovalForAll",
      "type": "event"
    },
    {
      "anonymous": false,
      "inputs": [
        {
          "indexed": false,
          "internalType": "uint256",
          "name": "_fromTokenId",
          "type": "uint256"
        },
        {
          "indexed": false,
          "internalType": "uint256",
          "name": "_toTokenId",
          "type": "uint256"
        }
      ],
      "name": "BatchMetadataUpdate",
      "type": "event"
    },
    {
      "anonymous": false,
      "inputs": [
        {
          "indexed": false,
          "internalType": "uint256",
          "name": "_tokenId",
          "type": "uint256"
        }
      ],
      "name": "MetadataUpdate",
      "type": "event"
    },
    {
      "anonymous": false,
      "inputs": [
        {
          "indexed": false,
          "internalType": "uint256",
          "name": "tokenId",
          "type": "uint256"
        }
      ],
      "name": "Minted",
      "type": "event"
    },
    {
      "anonymous": false,
      "inputs": [
        {
          "indexed": true,
          "internalType": "address",
          "name": "previousOwner",
          "type": "address"
        },
        {
          "indexed": true,
          "internalType": "address",
          "name": "newOwner",
          "type": "address"
        }
      ],
      "name": "OwnershipTransferred",
      "type": "event"
    },
    {
      "anonymous": false,
      "inputs": [
        {
          "indexed": true,
          "internalType": "address",
          "name": "from",
          "type": "address"
        },
        {
          "indexed": true,
          "internalType": "address",
          "name": "to",
          "type": "address"
        },
        {
          "indexed": true,
          "internalType": "uint256",
          "name": "tokenId",
          "type": "uint256"
        }
      ],
      "name": "Transfer",
      "type": "event"
    },
    {
      "inputs": [
        {
          "internalType": "address",
          "name": "to",
          "type": "address"
        },
        {
          "internalType": "uint256",
          "name": "tokenId",
          "type": "uint256"
        }
      ],
      "name": "approve",
      "outputs": [],
      "stateMutability": "nonpayable",
      "type": "function"
    },
    {
      "inputs": [
        {
          "internalType": "address",
          "name": "owner",
          "type": "address"
        }
      ],
      "name": "balanceOf",
      "outputs": [
        {
          "internalType": "uint256",
          "name": "",
          "type": "uint256"
        }
      ],
      "stateMutability": "view",
      "type": "function"
    },
    {
      "inputs": [
        {
          "internalType": "string",
          "name": "imageURI",
          "type": "string"
        }
      ],
      "name": "formatTokenURI",
      "outputs": [
        {
          "internalType": "string",
          "name": "",
          "type": "string"
        }
      ],
      "stateMutability": "pure",
      "type": "function"
    },
    {
      "inputs": [
        {
          "internalType": "uint256",
          "name": "tokenId",
          "type": "uint256"
        }
      ],
      "name": "getApproved",
      "outputs": [
        {
          "internalType": "address",
          "name": "",
          "type": "address"
        }
      ],
      "stateMutability": "view",
      "type": "function"
    },
    {
      "inputs": [
        {
          "internalType": "address",
          "name": "owner",
          "type": "address"
        },
        {
          "internalType": "address",
          "name": "operator",
          "type": "address"
        }
      ],
      "name": "isApprovedForAll",
      "outputs": [
        {
          "internalType": "bool",
          "name": "",
          "type": "bool"
        }
      ],
      "stateMutability": "view",
      "type": "function"
    },
    {
      "inputs": [
        {
          "internalType": "string",
          "name": "svg",
          "type": "string"
        }
      ],
      "name": "mint",
      "outputs": [],
      "stateMutability": "nonpayable",
      "type": "function"
    },
    {
      "inputs": [],
      "name": "name",
      "outputs": [
        {
          "internalType": "string",
          "name": "",
          "type": "string"
        }
      ],
      "stateMutability": "view",
      "type": "function"
    },
    {
      "inputs": [],
      "name": "owner",
      "outputs": [
        {
          "internalType": "address",
          "name": "",
          "type": "address"
        }
      ],
      "stateMutability": "view",
      "type": "function"
    },
    {
      "inputs": [
        {
          "internalType": "uint256",
          "name": "tokenId",
          "type": "uint256"
        }
      ],
      "name": "ownerOf",
      "outputs": [
        {
          "internalType": "address",
          "name": "",
          "type": "address"
        }
      ],
      "stateMutability": "view",
      "type": "function"
    },
    {
      "inputs": [],
      "name": "renounceOwnership",
      "outputs": [],
      "stateMutability": "nonpayable",
      "type": "function"
    },
    {
      "inputs": [
        {
          "internalType": "address",
          "name": "from",
          "type": "address"
        },
        {
          "internalType": "address",
          "name": "to",
          "type": "address"
        },
        {
          "internalType": "uint256",
          "name": "tokenId",
          "type": "uint256"
        }
      ],
      "name": "safeTransferFrom",
      "outputs": [],
      "stateMutability": "nonpayable",
      "type": "function"
    },
    {
      "inputs": [
        {
          "internalType": "address",
          "name": "from",
          "type": "address"
        },
        {
          "internalType": "address",
          "name": "to",
          "type": "address"
        },
        {
          "internalType": "uint256",
          "name": "tokenId",
          "type": "uint256"
        },
        {
          "internalType": "bytes",
          "name": "data",
          "type": "bytes"
        }
      ],
      "name": "safeTransferFrom",
      "outputs": [],
      "stateMutability": "nonpayable",
      "type": "function"
    },
    {
      "inputs": [
        {
          "internalType": "address",
          "name": "operator",
          "type": "address"
        },
        {
          "internalType": "bool",
          "name": "approved",
          "type": "bool"
        }
      ],
      "name": "setApprovalForAll",
      "outputs": [],
      "stateMutability": "nonpayable",
      "type": "function"
    },
    {
      "inputs": [
        {
          "internalType": "bytes4",
          "name": "interfaceId",
          "type": "bytes4"
        }
      ],
      "name": "supportsInterface",
      "outputs": [
        {
          "internalType": "bool",
          "name": "",
          "type": "bool"
        }
      ],
      "stateMutability": "view",
      "type": "function"
    },
    {
      "inputs": [
        {
          "internalType": "string",
          "name": "svg",
          "type": "string"
        }
      ],
      "name": "svgToImageURI",
      "outputs": [
        {
          "internalType": "string",
          "name": "",
          "type": "string"
        }
      ],
      "stateMutability": "pure",
      "type": "function"
    },
    {
      "inputs": [],
      "name": "symbol",
      "outputs": [
        {
          "internalType": "string",
          "name": "",
          "type": "string"
        }
      ],
      "stateMutability": "view",
      "type": "function"
    },
    {
      "inputs": [
        {
          "internalType": "uint256",
          "name": "tokenId",
          "type": "uint256"
        }
      ],
      "name": "tokenURI",
      "outputs": [
        {
          "internalType": "string",
          "name": "",
          "type": "string"
        }
      ],
      "stateMutability": "view",
      "type": "function"
    },
    {
      "inputs": [
        {
          "internalType": "address",
          "name": "from",
          "type": "address"
        },
        {
          "internalType": "address",
          "name": "to",
          "type": "address"
        },
        {
          "internalType": "uint256",
          "name": "tokenId",
          "type": "uint256"
        }
      ],
      "name": "transferFrom",
      "outputs": [],
      "stateMutability": "nonpayable",
      "type": "function"
    },
    {
      "inputs": [
        {
          "internalType": "address",
          "name": "newOwner",
          "type": "address"
        }
      ],
      "name": "transferOwnership",
      "outputs": [],
      "stateMutability": "nonpayable",
      "type": "function"
    }
  ],
  "bytecode": "0x60806040523480156200001157600080fd5b50336040518060400160405280600a81526020017f4f6e436861696e4e4654000000000000000000000000000000000000000000008152506040518060400160405280600381526020017f4f4e430000000000000000000000000000000000000000000000000000000000815250816000908162000090919062000472565b508060019081620000a2919062000472565b505050600073ffffffffffffffffffffffffffffffffffffffff168173ffffffffffffffffffffffffffffffffffffffff16036200011a5760006040517f1e4fbdf70000000000000000000000000000000000000000000000000000000081526004016200011191906200059e565b60405180910390fd5b6200012b816200013260201b60201c565b50620005bb565b6000600760009054906101000a900473ffffffffffffffffffffffffffffffffffffffff16905081600760006101000a81548173ffffffffffffffffffffffffffffffffffffffff021916908373ffffffffffffffffffffffffffffffffffffffff1602179055508173ffffffffffffffffffffffffffffffffffffffff168173ffffffffffffffffffffffffffffffffffffffff167f8be0079c531659141344cd1fd0a4f28419497f9722a3daafe3b4186f6b6457e060405160405180910390a35050565b600081519050919050565b7f4e487b7100000000000000000000000000000000000000000000000000000000600052604160045260246000fd5b7f4e487b7100000000000000000000000000000000000000000000000000000000600052602260045260246000fd5b600060028204905060018216806200027a57607f821691505b60208210810362000290576200028f62000232565b5b50919050565b60008190508160005260206000209050919050565b60006020601f8301049050919050565b600082821b905092915050565b600060088302620002fa7fffffffffffffffffffffffffffffffffffffffffffffffffffffffffffffffff82620002bb565b620003068683620002bb565b95508019841693508086168417925050509392505050565b6000819050919050565b6000819050919050565b6000620003536200034d62000347846200031e565b62000328565b6200031e565b9050919050565b6000819050919050565b6200036f8362000332565b620003876200037e826200035a565b848454620002c8565b825550505050565b600090565b6200039e6200038f565b620003ab81848462000364565b505050565b5b81811015620003d357620003c760008262000394565b600181019050620003b1565b5050565b601f8211156200042257620003ec8162000296565b620003f784620002ab565b8101602085101562000407578190505b6200041f6200041685620002ab565b830182620003b0565b50505b505050565b600082821c905092915050565b6000620004476000198460080262000427565b1980831691505092915050565b600062000462838362000434565b9150826002028217905092915050565b6200047d82620001f8565b67ffffffffffffffff81111562000499576200049862000203565b5b620004a5825462000261565b620004b2828285620003d7565b600060209050601f831160018114620004ea5760008415620004d5578287015190505b620004e1858262000454565b86555062000551565b601f198416620004fa8662000296565b60005b828110156200052457848901518255600182019150602085019450602081019050620004fd565b8683101562000544578489015162000540601f89168262000434565b8355505b6001600288020188555050505b505050505050565b600073ffffffffffffffffffffffffffffffffffffffff82169050919050565b6000620005868262000559565b9050919050565b620005988162000579565b82525050565b6000602082019050620005b560008301846200058d565b92915050565b612b9180620005cb6000396000f3fe608060405234801561001057600080fd5b50600436106101215760003560e01c8063715018a6116100ad578063b88d4fde11610071578063b88d4fde1461031a578063c87b56dd14610336578063d85d3d2714610366578063e985e9c514610382578063f2fde38b146103b257610121565b8063715018a61461028857806371aee193146102925780638da5cb5b146102c257806395d89b41146102e0578063a22cb465146102fe57610121565b806323b872dd116100f457806323b872dd146101c057806330d871c6146101dc57806342842e0e1461020c5780636352211e1461022857806370a082311461025857610121565b806301ffc9a71461012657806306fdde0314610156578063081812fc14610174578063095ea7b3146101a4575b600080fd5b610140600480360381019061013b9190611dde565b6103ce565b60405161014d9190611e26565b60405180910390f35b61015e61042f565b60405161016b9190611ed1565b60405180910390f35b61018e60048036038101906101899190611f29565b6104c1565b60405161019b9190611f97565b60405180910390f35b6101be60048036038101906101b99190611fde565b6104dd565b005b6101da60048036038101906101d5919061201e565b6104f3565b005b6101f660048036038101906101f191906121a6565b6105f5565b6040516102039190611ed1565b60405180910390f35b6102266004803603810190610221919061201e565b610669565b005b610242600480360381019061023d9190611f29565b610689565b60405161024f9190611f97565b60405180910390f35b610272600480360381019061026d91906121ef565b61069b565b60405161027f919061222b565b60405180910390f35b610290610755565b005b6102ac60048036038101906102a791906121a6565b610769565b6040516102b99190611ed1565b60405180910390f35b6102ca6107b9565b6040516102d79190611f97565b60405180910390f35b6102e86107e3565b6040516102f59190611ed1565b60405180910390f35b61031860048036038101906103139190612272565b610875565b005b610334600480360381019061032f9190612353565b61088b565b005b610350600480360381019061034b9190611f29565b6108a8565b60405161035d9190611ed1565b60405180910390f35b610380600480360381019061037b91906121a6565b6109bb565b005b61039c600480360381019061039791906123d6565b610a52565b6040516103a99190611e26565b60405180910390f35b6103cc60048036038101906103c791906121ef565b610ae6565b005b6000634906490660e01b7bffffffffffffffffffffffffffffffffffffffffffffffffffffffff1916827bffffffffffffffffffffffffffffffffffffffffffffffffffffffff19161480610428575061042782610b6c565b5b9050919050565b60606000805461043e90612445565b80601f016020809104026020016040519081016040528092919081815260200182805461046a90612445565b80156104b75780601f1061048c576101008083540402835291602001916104b7565b820191906000526020600020905b81548152906001019060200180831161049a57829003601f168201915b5050505050905090565b60006104cc82610c4e565b506104d682610cd6565b9050919050565b6104ef82826104ea610d13565b610d1b565b5050565b600073ffffffffffffffffffffffffffffffffffffffff168273ffffffffffffffffffffffffffffffffffffffff16036105655760006040517f64a0ae9200000000000000000000000000000000000000000000000000000000815260040161055c9190611f97565b60405180910390fd5b60006105798383610574610d13565b610d2d565b90508373ffffffffffffffffffffffffffffffffffffffff168173ffffffffffffffffffffffffffffffffffffffff16146105ef578382826040517f64283d7b0000000000000000000000000000000000000000000000000000000081526004016105e693929190612476565b60405180910390fd5b50505050565b606060006040518060400160405280601a81526020017f646174613a696d6167652f7376672b786d6c3b6261736536342c0000000000008152509050600061063c84610f47565b905081816040516020016106519291906124e9565b60405160208183030381529060405292505050919050565b6106848383836040518060200160405280600081525061088b565b505050565b600061069482610c4e565b9050919050565b60008073ffffffffffffffffffffffffffffffffffffffff168273ffffffffffffffffffffffffffffffffffffffff160361070e5760006040517f89c62b640000000000000000000000000000000000000000000000000000000081526004016107059190611f97565b60405180910390fd5b600360008373ffffffffffffffffffffffffffffffffffffffff1673ffffffffffffffffffffffffffffffffffffffff168152602001908152602001600020549050919050565b61075d6110de565b6107676000611165565b565b60606107938260405160200161077f91906125f1565b604051602081830303815290604052610f47565b6040516020016107a3919061266a565b6040516020818303038152906040529050919050565b6000600760009054906101000a900473ffffffffffffffffffffffffffffffffffffffff16905090565b6060600180546107f290612445565b80601f016020809104026020016040519081016040528092919081815260200182805461081e90612445565b801561086b5780601f106108405761010080835404028352916020019161086b565b820191906000526020600020905b81548152906001019060200180831161084e57829003601f168201915b5050505050905090565b610887610880610d13565b838361122b565b5050565b6108968484846104f3565b6108a28484848461139a565b50505050565b60606108b382610c4e565b5060006006600084815260200190815260200160002080546108d490612445565b80601f016020809104026020016040519081016040528092919081815260200182805461090090612445565b801561094d5780601f106109225761010080835404028352916020019161094d565b820191906000526020600020905b81548152906001019060200180831161093057829003601f168201915b50505050509050600061095e611551565b905060008151036109735781925050506109b6565b6000825111156109a85780826040516020016109909291906124e9565b604051602081830303815290604052925050506109b6565b6109b184611568565b925050505b919050565b6109c36110de565b60006109ce826105f5565b905060006109db82610769565b905060016008546109ec91906126bb565b600881905550600060085490506000600881905550610a0b33826115d1565b610a1581836115ef565b7f176b02bb2d12439ff7a20b59f402cca16c76f50508b13ef3166a600eb719354a81604051610a44919061222b565b60405180910390a150505050565b6000600560008473ffffffffffffffffffffffffffffffffffffffff1673ffffffffffffffffffffffffffffffffffffffff16815260200190815260200160002060008373ffffffffffffffffffffffffffffffffffffffff1673ffffffffffffffffffffffffffffffffffffffff16815260200190815260200160002060009054906101000a900460ff16905092915050565b610aee6110de565b600073ffffffffffffffffffffffffffffffffffffffff168173ffffffffffffffffffffffffffffffffffffffff1603610b605760006040517f1e4fbdf7000000000000000000000000000000000000000000000000000000008152600401610b579190611f97565b60405180910390fd5b610b6981611165565b50565b60007f80ac58cd000000000000000000000000000000000000000000000000000000007bffffffffffffffffffffffffffffffffffffffffffffffffffffffff1916827bffffffffffffffffffffffffffffffffffffffffffffffffffffffff19161480610c3757507f5b5e139f000000000000000000000000000000000000000000000000000000007bffffffffffffffffffffffffffffffffffffffffffffffffffffffff1916827bffffffffffffffffffffffffffffffffffffffffffffffffffffffff1916145b80610c475750610c468261164b565b5b9050919050565b600080610c5a836116b5565b9050600073ffffffffffffffffffffffffffffffffffffffff168173ffffffffffffffffffffffffffffffffffffffff1603610ccd57826040517f7e273289000000000000000000000000000000000000000000000000000000008152600401610cc4919061222b565b60405180910390fd5b80915050919050565b60006004600083815260200190815260200160002060009054906101000a900473ffffffffffffffffffffffffffffffffffffffff169050919050565b600033905090565b610d2883838360016116f2565b505050565b600080610d39846116b5565b9050600073ffffffffffffffffffffffffffffffffffffffff168373ffffffffffffffffffffffffffffffffffffffff1614610d7b57610d7a8184866118b7565b5b600073ffffffffffffffffffffffffffffffffffffffff168173ffffffffffffffffffffffffffffffffffffffff1614610e0c57610dbd6000856000806116f2565b6001600360008373ffffffffffffffffffffffffffffffffffffffff1673ffffffffffffffffffffffffffffffffffffffff168152602001908152602001600020600082825403925050819055505b600073ffffffffffffffffffffffffffffffffffffffff168573ffffffffffffffffffffffffffffffffffffffff1614610e8f576001600360008773ffffffffffffffffffffffffffffffffffffffff1673ffffffffffffffffffffffffffffffffffffffff168152602001908152602001600020600082825401925050819055505b846002600086815260200190815260200160002060006101000a81548173ffffffffffffffffffffffffffffffffffffffff021916908373ffffffffffffffffffffffffffffffffffffffff160217905550838573ffffffffffffffffffffffffffffffffffffffff168273ffffffffffffffffffffffffffffffffffffffff167fddf252ad1be2c89b69c2b068fc378daa952ba7f163c4a11628f55a4df523b3ef60405160405180910390a4809150509392505050565b606060008251905060008103610f6f57604051806020016040528060008152509150506110d9565b60006003600283610f8091906126bb565b610f8a919061271e565b6004610f96919061274f565b90506000602082610fa791906126bb565b67ffffffffffffffff811115610fc057610fbf61207b565b5b6040519080825280601f01601f191660200182016040528015610ff25781602001600182028036833780820191505090505b5090506000604051806060016040528060408152602001612b1c604091399050600181016020830160005b868110156110965760038101905062ffffff818a015116603f8160121c168401518060081b905060ff603f83600c1c1686015116810190508060081b905060ff603f8360061c1686015116810190508060081b905060ff603f831686015116810190508060e01b9050808452600484019350505061101d565b5060038606600181146110b057600281146110c0576110cb565b613d3d60f01b60028303526110cb565b603d60f81b60018303525b508484525050819450505050505b919050565b6110e6610d13565b73ffffffffffffffffffffffffffffffffffffffff166111046107b9565b73ffffffffffffffffffffffffffffffffffffffff161461116357611127610d13565b6040517f118cdaa700000000000000000000000000000000000000000000000000000000815260040161115a9190611f97565b60405180910390fd5b565b6000600760009054906101000a900473ffffffffffffffffffffffffffffffffffffffff16905081600760006101000a81548173ffffffffffffffffffffffffffffffffffffffff021916908373ffffffffffffffffffffffffffffffffffffffff1602179055508173ffffffffffffffffffffffffffffffffffffffff168173ffffffffffffffffffffffffffffffffffffffff167f8be0079c531659141344cd1fd0a4f28419497f9722a3daafe3b4186f6b6457e060405160405180910390a35050565b600073ffffffffffffffffffffffffffffffffffffffff168273ffffffffffffffffffffffffffffffffffffffff160361129c57816040517f5b08ba180000000000000000000000000000000000000000000000000000000081526004016112939190611f97565b60405180910390fd5b80600560008573ffffffffffffffffffffffffffffffffffffffff1673ffffffffffffffffffffffffffffffffffffffff16815260200190815260200160002060008473ffffffffffffffffffffffffffffffffffffffff1673ffffffffffffffffffffffffffffffffffffffff16815260200190815260200160002060006101000a81548160ff0219169083151502179055508173ffffffffffffffffffffffffffffffffffffffff168373ffffffffffffffffffffffffffffffffffffffff167f17307eab39ab6107e8899845ad3d59bd9653f200f220920489ca2b5937696c318360405161138d9190611e26565b60405180910390a3505050565b60008373ffffffffffffffffffffffffffffffffffffffff163b111561154b578273ffffffffffffffffffffffffffffffffffffffff1663150b7a026113de610d13565b8685856040518563ffffffff1660e01b815260040161140094939291906127e6565b6020604051808303816000875af192505050801561143c57506040513d601f19601f820116820180604052508101906114399190612847565b60015b6114c0573d806000811461146c576040519150601f19603f3d011682016040523d82523d6000602084013e611471565b606091505b5060008151036114b857836040517f64a0ae920000000000000000000000000000000000000000000000000000000081526004016114af9190611f97565b60405180910390fd5b805181602001fd5b63150b7a0260e01b7bffffffffffffffffffffffffffffffffffffffffffffffffffffffff1916817bffffffffffffffffffffffffffffffffffffffffffffffffffffffff19161461154957836040517f64a0ae920000000000000000000000000000000000000000000000000000000081526004016115409190611f97565b60405180910390fd5b505b50505050565b606060405180602001604052806000815250905090565b606061157382610c4e565b50600061157e611551565b9050600081511161159e57604051806020016040528060008152506115c9565b806115a88461197b565b6040516020016115b99291906124e9565b6040516020818303038152906040525b915050919050565b6115eb828260405180602001604052806000815250611a49565b5050565b8060066000848152602001908152602001600020908161160f9190612a20565b507ff8e1a15aba9398e019f0b49df1a4fde98ee17ae345cb5f6b5e2c27f5033e8ce78260405161163f919061222b565b60405180910390a15050565b60007f01ffc9a7000000000000000000000000000000000000000000000000000000007bffffffffffffffffffffffffffffffffffffffffffffffffffffffff1916827bffffffffffffffffffffffffffffffffffffffffffffffffffffffff1916149050919050565b60006002600083815260200190815260200160002060009054906101000a900473ffffffffffffffffffffffffffffffffffffffff169050919050565b808061172b5750600073ffffffffffffffffffffffffffffffffffffffff168273ffffffffffffffffffffffffffffffffffffffff1614155b1561185f57600061173b84610c4e565b9050600073ffffffffffffffffffffffffffffffffffffffff168373ffffffffffffffffffffffffffffffffffffffff16141580156117a657508273ffffffffffffffffffffffffffffffffffffffff168173ffffffffffffffffffffffffffffffffffffffff1614155b80156117b957506117b78184610a52565b155b156117fb57826040517fa9fbf51f0000000000000000000000000000000000000000000000000000000081526004016117f29190611f97565b60405180910390fd5b811561185d57838573ffffffffffffffffffffffffffffffffffffffff168273ffffffffffffffffffffffffffffffffffffffff167f8c5be1e5ebec7d5bd14f71427d1e84f3dd0314c0f7b2291e5b200ac8c7c3b92560405160405180910390a45b505b836004600085815260200190815260200160002060006101000a81548173ffffffffffffffffffffffffffffffffffffffff021916908373ffffffffffffffffffffffffffffffffffffffff16021790555050505050565b6118c2838383611a65565b61197657600073ffffffffffffffffffffffffffffffffffffffff168373ffffffffffffffffffffffffffffffffffffffff160361193757806040517f7e27328900000000000000000000000000000000000000000000000000000000815260040161192e919061222b565b60405180910390fd5b81816040517f177e802f00000000000000000000000000000000000000000000000000000000815260040161196d929190612af2565b60405180910390fd5b505050565b60606000600161198a84611b26565b01905060008167ffffffffffffffff8111156119a9576119a861207b565b5b6040519080825280601f01601f1916602001820160405280156119db5781602001600182028036833780820191505090505b509050600082602001820190505b600115611a3e578080600190039150507f3031323334353637383961626364656600000000000000000000000000000000600a86061a8153600a8581611a3257611a316126ef565b5b049450600085036119e9575b819350505050919050565b611a538383611c79565b611a60600084848461139a565b505050565b60008073ffffffffffffffffffffffffffffffffffffffff168373ffffffffffffffffffffffffffffffffffffffff1614158015611b1d57508273ffffffffffffffffffffffffffffffffffffffff168473ffffffffffffffffffffffffffffffffffffffff161480611ade5750611add8484610a52565b5b80611b1c57508273ffffffffffffffffffffffffffffffffffffffff16611b0483610cd6565b73ffffffffffffffffffffffffffffffffffffffff16145b5b90509392505050565b600080600090507a184f03e93ff9f4daa797ed6e38ed64bf6a1f0100000000000000008310611b84577a184f03e93ff9f4daa797ed6e38ed64bf6a1f0100000000000000008381611b7a57611b796126ef565b5b0492506040810190505b6d04ee2d6d415b85acef81000000008310611bc1576d04ee2d6d415b85acef81000000008381611bb757611bb66126ef565b5b0492506020810190505b662386f26fc100008310611bf057662386f26fc100008381611be657611be56126ef565b5b0492506010810190505b6305f5e1008310611c19576305f5e1008381611c0f57611c0e6126ef565b5b0492506008810190505b6127108310611c3e576127108381611c3457611c336126ef565b5b0492506004810190505b60648310611c615760648381611c5757611c566126ef565b5b0492506002810190505b600a8310611c70576001810190505b80915050919050565b600073ffffffffffffffffffffffffffffffffffffffff168273ffffffffffffffffffffffffffffffffffffffff1603611ceb5760006040517f64a0ae92000000000000000000000000000000000000000000000000000000008152600401611ce29190611f97565b60405180910390fd5b6000611cf983836000610d2d565b9050600073ffffffffffffffffffffffffffffffffffffffff168173ffffffffffffffffffffffffffffffffffffffff1614611d6d5760006040517f73c6ac6e000000000000000000000000000000000000000000000000000000008152600401611d649190611f97565b60405180910390fd5b505050565b6000604051905090565b600080fd5b600080fd5b60007fffffffff0000000000000000000000000000000000000000000000000000000082169050919050565b611dbb81611d86565b8114611dc657600080fd5b50565b600081359050611dd881611db2565b92915050565b600060208284031215611df457611df3611d7c565b5b6000611e0284828501611dc9565b91505092915050565b60008115159050919050565b611e2081611e0b565b82525050565b6000602082019050611e3b6000830184611e17565b92915050565b600081519050919050565b600082825260208201905092915050565b60005b83811015611e7b578082015181840152602081019050611e60565b60008484015250505050565b6000601f19601f8301169050919050565b6000611ea382611e41565b611ead8185611e4c565b9350611ebd818560208601611e5d565b611ec681611e87565b840191505092915050565b60006020820190508181036000830152611eeb8184611e98565b905092915050565b6000819050919050565b611f0681611ef3565b8114611f1157600080fd5b50565b600081359050611f2381611efd565b92915050565b600060208284031215611f3f57611f3e611d7c565b5b6000611f4d84828501611f14565b91505092915050565b600073ffffffffffffffffffffffffffffffffffffffff82169050919050565b6000611f8182611f56565b9050919050565b611f9181611f76565b82525050565b6000602082019050611fac6000830184611f88565b92915050565b611fbb81611f76565b8114611fc657600080fd5b50565b600081359050611fd881611fb2565b92915050565b60008060408385031215611ff557611ff4611d7c565b5b600061200385828601611fc9565b925050602061201485828601611f14565b9150509250929050565b60008060006060848603121561203757612036611d7c565b5b600061204586828701611fc9565b935050602061205686828701611fc9565b925050604061206786828701611f14565b9150509250925092565b600080fd5b600080fd5b7f4e487b7100000000000000000000000000000000000000000000000000000000600052604160045260246000fd5b6120b382611e87565b810181811067ffffffffffffffff821117156120d2576120d161207b565b5b80604052505050565b60006120e5611d72565b90506120f182826120aa565b919050565b600067ffffffffffffffff8211156121115761211061207b565b5b61211a82611e87565b9050602081019050919050565b82818337600083830152505050565b6000612149612144846120f6565b6120db565b90508281526020810184848401111561216557612164612076565b5b612170848285612127565b509392505050565b600082601f83011261218d5761218c612071565b5b813561219d848260208601612136565b91505092915050565b6000602082840312156121bc576121bb611d7c565b5b600082013567ffffffffffffffff8111156121da576121d9611d81565b5b6121e684828501612178565b91505092915050565b60006020828403121561220557612204611d7c565b5b600061221384828501611fc9565b91505092915050565b61222581611ef3565b82525050565b6000602082019050612240600083018461221c565b92915050565b61224f81611e0b565b811461225a57600080fd5b50565b60008135905061226c81612246565b92915050565b6000806040838503121561228957612288611d7c565b5b600061229785828601611fc9565b92505060206122a88582860161225d565b9150509250929050565b600067ffffffffffffffff8211156122cd576122cc61207b565b5b6122d682611e87565b9050602081019050919050565b60006122f66122f1846122b2565b6120db565b90508281526020810184848401111561231257612311612076565b5b61231d848285612127565b509392505050565b600082601f83011261233a57612339612071565b5b813561234a8482602086016122e3565b91505092915050565b6000806000806080858703121561236d5761236c611d7c565b5b600061237b87828801611fc9565b945050602061238c87828801611fc9565b935050604061239d87828801611f14565b925050606085013567ffffffffffffffff8111156123be576123bd611d81565b5b6123ca87828801612325565b91505092959194509250565b600080604083850312156123ed576123ec611d7c565b5b60006123fb85828601611fc9565b925050602061240c85828601611fc9565b9150509250929050565b7f4e487b7100000000000000000000000000000000000000000000000000000000600052602260045260246000fd5b6000600282049050600182168061245d57607f821691505b6020821081036124705761246f612416565b5b50919050565b600060608201905061248b6000830186611f88565b612498602083018561221c565b6124a56040830184611f88565b949350505050565b600081905092915050565b60006124c382611e41565b6124cd81856124ad565b93506124dd818560208601611e5d565b80840191505092915050565b60006124f582856124b8565b915061250182846124b8565b91508190509392505050565b7f7b226e616d65223a20224c434d204f4e2d434841494e4544222c20226465736360008201527f72697074696f6e223a2022412073696d706c6520535647206261736564206f6e60208201527f2d636861696e204e4654222c2022696d616765223a2200000000000000000000604082015250565b600061258f6056836124ad565b915061259a8261250d565b605682019050919050565b7f227d000000000000000000000000000000000000000000000000000000000000600082015250565b60006125db6002836124ad565b91506125e6826125a5565b600282019050919050565b60006125fc82612582565b915061260882846124b8565b9150612613826125ce565b915081905092915050565b7f646174613a6170706c69636174696f6e2f6a736f6e3b6261736536342c000000600082015250565b6000612654601d836124ad565b915061265f8261261e565b601d82019050919050565b600061267582612647565b915061268182846124b8565b915081905092915050565b7f4e487b7100000000000000000000000000000000000000000000000000000000600052601160045260246000fd5b60006126c682611ef3565b91506126d183611ef3565b92508282019050808211156126e9576126e861268c565b5b92915050565b7f4e487b7100000000000000000000000000000000000000000000000000000000600052601260045260246000fd5b600061272982611ef3565b915061273483611ef3565b925082612744576127436126ef565b5b828204905092915050565b600061275a82611ef3565b915061276583611ef3565b925082820261277381611ef3565b9150828204841483151761278a5761278961268c565b5b5092915050565b600081519050919050565b600082825260208201905092915050565b60006127b882612791565b6127c2818561279c565b93506127d2818560208601611e5d565b6127db81611e87565b840191505092915050565b60006080820190506127fb6000830187611f88565b6128086020830186611f88565b612815604083018561221c565b818103606083015261282781846127ad565b905095945050505050565b60008151905061284181611db2565b92915050565b60006020828403121561285d5761285c611d7c565b5b600061286b84828501612832565b91505092915050565b60008190508160005260206000209050919050565b60006020601f8301049050919050565b600082821b905092915050565b6000600883026128d67fffffffffffffffffffffffffffffffffffffffffffffffffffffffffffffffff82612899565b6128e08683612899565b95508019841693508086168417925050509392505050565b6000819050919050565b600061291d61291861291384611ef3565b6128f8565b611ef3565b9050919050565b6000819050919050565b61293783612902565b61294b61294382612924565b8484546128a6565b825550505050565b600090565b612960612953565b61296b81848461292e565b505050565b5b8181101561298f57612984600082612958565b600181019050612971565b5050565b601f8211156129d4576129a581612874565b6129ae84612889565b810160208510156129bd578190505b6129d16129c985612889565b830182612970565b50505b505050565b600082821c905092915050565b60006129f7600019846008026129d9565b1980831691505092915050565b6000612a1083836129e6565b9150826002028217905092915050565b612a2982611e41565b67ffffffffffffffff811115612a4257612a4161207b565b5b612a4c8254612445565b612a57828285612993565b600060209050601f831160018114612a8a5760008415612a78578287015190505b612a828582612a04565b865550612aea565b601f198416612a9886612874565b60005b82811015612ac057848901518255600182019150602085019450602081019050612a9b565b86831015612add5784890151612ad9601f8916826129e6565b8355505b6001600288020188555050505b505050505050565b6000604082019050612b076000830185611f88565b612b14602083018461221c565b939250505056fe4142434445464748494a4b4c4d4e4f505152535455565758595a6162636465666768696a6b6c6d6e6f707172737475767778797a303132333435363738392b2fa26469706673582212201978f297fc6ac65dab7d293f9e10958ebba7476bc4b4f7f4e30bfc5c1edccd8c64736f6c63430008180033",
  "linkReferences": {},
  "deployedLinkReferences": {}
}